:1000000002F50400000000000000000000000000F5
:1000100000000000000000000000000000000000E0
:100020000000000000000000000000001CF40000C0
:1000300000000000000000000000000000000000C0
:10004000000000004EF400000000000084F40000F6
:1000500000000000000000000000000000000000A0
:100060000000000000000000000000000000000090
:1000700000000000000000000000000090F0000000
:1000800052F6000000000000DEF400000000000056
:100090000000000000000000000000000000000060
:1000A0000000000000000000000000000000000050
:1000B0000000000000000000000000000000000040
:1000C0000000000000000000000000000000000030
:1000D0000000000000000000000000000000000020
:1000E0000000000000000000000000000000000010
:1000F0000000000000000000000000000000000000
:1001000000000000000000000000000000000000EF
:1001100000000000000000000000000000000000DF
:1001200000000000000000000000000000000000CF
:1001300000000000000000000000000000000000BF
:1001400000000000000000000000000000000000AF
:10015000000000000000000000000000000000009F
:10016000000000000000000000000000000000008F
:10017000000000000000000000000000000000007F
:10018000000000000000000000000000000000006F
:10019000000000000000000000000000000000005F
:1001A000000000000000000000000000000000004F
:1001B000000000000000000000000000000000003F
:1001C000000000000000000000000000000000002F
:1001D000000000000000000000000000000000001F
:1001E000000000000000000000000000000000000F
:1001F00000000000000000000000000000000000FF
:020000040001F9
:10EA0400CF792100F07F220020A0B7002000200051
:10EA140034A0B700400020004420B7008A1F7800CB
:10EA24008B1F78008C1F78008D1F78004A1F2000F0
:10EA3400BDF4070062F00700ABF507007DC0B3002A
:10EA44005CC0B3008A1E28002B00200000022000B6
:10EA5400801F7800C5B207002F00B1009DF50700A4
:10EA64000003280010A1B7007DC0B3005CC0B30050
:10EA74008A1E28002B00200000022000801F78003E
:10EA8400BAB207002F00B10034FA0700C3F9070037
:10EA9400AACF28002B00200078F907007D01200070
:10EAA400AC0320000B0120003A042000A00F290031
:10EAB40021002000809FBE0070012000801F78008C
:10EAC400A0032000801F78005AFC07008F00B100CB
:10EAD400605921001010A0007DC0B3005CC0B300D9
:10EAE4008A1E28002B00200000022000801F7800CE
:10EAF4009EB207002F00B1000E22A9000E42A90009
:10EB04001DC0B3002CC0B3001620EF00CA60210062
:10EB1400FFB00700CFA2AF001800370071612100D9
:10EB240070C4B3008058780050C4B3008058780093
:10EB3400D0C4B3008058780040C5B3008058780032
:10EB440010C4B3008058780000C2B3008058780025
:10EB540090C4B30080587800E0C4B30080587800B3
:10EB640030C4B30080587800E0C2B3008058780005
:10EB74000020EF008058780019003700CFA2AF00C2
:10EB8400170037007161210040C5B3008058780038
:10EB940050C6B3008058780030C7B300805878005E
:10EBA40040C7B3008058780000C2B3008058780092
:10EBB40030C5B30080587800F0C6B30080587800A0
:10EBC40060C6B3008058780040C7B300805878000E
:10EBD400E0C2B300805878000020EF00805878002D
:10EBE400D402AF00020037007A61210025F5070046
:10EBF400D402AF0015003700D402AF000200370082
:10EC04000060FE00FCFF3700E0F50700AACF2800F3
:10EC14002B00200019F907007D012000AC0320001F
:10EC24000B0120003A042000A00F2900210020003D
:10EC3400809FBE0070012000801F7800A003200088
:10EC4400801F7800FBFB07008F00B1000060FE000E
:10EC5400A1FF3700CF0678004F067800CF05780073
:08EC64004F057800FFFF3700A7
:08BD2C0049DD070000000600DC
:1032540002532700030020000A0078008000EB00DE
:1032640032C107000001BE00300920000100200027
:103274000000510081805900F2FF230082016000A8
:10328400E20020000201E900030035008100D100C2
:103294000080D300FBFF37000000E200040032008E
:1032A400F93F0900000000000000E900FAFF3700C0
:0C32B4000380090000000000000006007C
:020000040000FA
:103730000000FA00020AB800500088000200B80039
:1037400081004200032AB800810042000080FA0094
:04375000000006006F
:020000040001F9
:10ABC4008A1F78008B1F7800F0FF2F00A8A2B7001F
:10ABD40008012000472424000E20ED00FEFF3A0067
:10ABE4001020ED00FCFF3A000060FE009420EF000E
:10ABF4009620EF009820EF009A20EF009C20EF00B1
:10AC04009E20EF00A020EF008C20EF008E20EF00AC
:10AC14009020EF0081E0A9001221EF000A21EF004B
:10AC2400E0A980000EA1B7001E21EF001421EF005F
:10AC3400005327001AA1B700004020000EA2B7005D
:10AC44000040200018A2B700F0D7290084A0B70064
:10AC5400F0ED2F0086A0B7000000250096A0B700F5
:10AC64000006200098A0B700000420009EA0B700B2
:10AC740070002000A0A0B700002820008CA0B7001E
:10AC8400001220008EA0B700F0FF2F00C0A2B70072
:10AC9400F0FF2F00C6A2B70010FF2F00CCA2B70010
:10ACA400F0FF2F00D2A2B700F0FF2F00DEA2B70002
:10ACB400F0FF2F00E4A2B700D062A9001A00200020
:10ACC4000B0020007DE10700D042A9001A002000FB
:10ACD4000B00200079E10700D022A9001A0020000F
:10ACE4000B00200075E10700AA0020000E040700F5
:10ACF4000060FE00F09F2300C0A2B70070A22F00E6
:10AD0400C6A2B70010FE2300CCA2B700F09F230018
:10AD1400D2A2B700F0EB2F00DEA2B700F0EB2100C7
:10AD2400E4A2B700AA002000FF030700C7C2A800DE
:10AD3400E5C2A900E582A800C222EF00C822EF0004
:10AD4400CE22EF00D422EF00E022EF00E622EF0053
:10AD5400AA002000F4030700E0E007004A062000F0
:10AD6400F10307001420EF000AE107004A0620005F
:10AD7400ED0307000060FE0095E107004A0620008D
:10AD8400E9030700CB5520006A1A2000A4E107005C
:10AD94005FE107008B732000CA1C2000A0E10700BC
:10ADA4001AC0B30071E107002AC0B3006FE10700C5
:10ADB4000A6A28001B002000A6E007004A062000BB
:10ADC400D90307000060FE000020EF00F09F880018
:10ADD4000020EF00D09F88000020EF0080978800BB
:10ADE4000020EF00909988000020EF001097880061
:10ADF4000020EF00509788000020EF00A097880003
:10AE0400512721000020EF008048780061232100B1
:10AE14000020EF0080487800D141210000C2B30037
:10AE24008058780000C2B3008058780000C2B30094
:10AE34008058780000C2B3008058780000C2B30084
:10AE4400805878000020EF0080587800412E2100BF
:10AE540000C2B3008058780000C2B3008058780064
:10AE640000C2B3008058780000C2B3008058780054
:10AE740000C2B300805878000020EF0080587800AA
:10AE8400E0E1200010F0A1000020EF00A091880074
:10AE94000020EF0090A38800514A21000020EF0019
:10AEA40080487800813821000020EF008048780035
:10AEB4000020EF000220EF0060A6880071A6880041
:10AEC400614621000020EF00804878000020EF0058
:10AED40060AC88000020EF0010AC8800911F2100B6
:10AEE4000020EF00804878000020EF000220EF00EF
:10AEF40060B6880071B688000020EF0050B6880064
:10AF04000020EF0000AC88000020EF0020AC880097
:10AF14000020EF0050AC88000020EF000220EF007A
:10AF240030AC880041AC88000020EF0090AC880071
:10AF3400605921001000A1000020EF0080AC8800BF
:10AF44000020EF00A0AC88000020EF0010998800DA
:10AF54000020EF00709788000020EF009097880091
:10AF64000020EF00B0978800C12D21000020EF00E1
:10AF740080487800013D21000020EF0080487800DF
:10AF8400E13C21000020EF0080487800913C210042
:10AF94000020EF0080487800A13C21000020EF0051
:10AFA40080487800B13C21000020EF008048780000
:10AFB400F13C21000020EF0080487800813C210012
:10AFC4000020EF0080487800014D210000C2B3004A
:10AFD4008058780000C2B3008058780000C2B300E3
:10AFE4008058780000C2B3008058780000C2B300D3
:10AFF4008058780000C2B3008058780000C2B300C3
:10B004008058780000C2B300805878000020EF0018
:10B0140080587800914D210000C2B3008058780018
:10B0240000C2B3008058780000C2B3008058780092
:10B0340000C2B3008058780000C2B3008058780082
:10B0440000C2B3008058780000C2B3008058780072
:10B0540000C2B3008058780000C2B3008058780062
:10B0640000C2B300805878000020EF0080587800B8
:10B07400D14B210040C1B300804878000020EF008C
:10B0840020A68800014C210000C2B300805878003B
:10B0940000C2B3008058780000C2B3008058780022
:10B0A4000020EF0080587800012121000020EF00EB
:10B0B40080487800712221000020EF008048780049
:10B0C400812221000020EF0080487800012E210019
:10B0D4000020EF0080487800E15821000020EF00B4
:10B0E400804878000020EF0030A688000020EF00A0
:10B0F40050A688000020EF0040A688000020EF0042
:10B1040020A788000020EF00B0A788000020EF00EF
:10B11400A0A788000020EF00C0A788000020EF004F
:10B12400F0A788000020EF000220EF00D0A78800DD
:10B13400E1A788000020EF000220EF0050A788005C
:10B1440061A788000020EF000220EF0030A78800EC
:10B1540041A788000020EF0070A788000020EF00BE
:10B1640090A788000020EF0080A788000020EF004F
:10B17400F0A588000020EF00F0A388000020EF0075
:10B184000220EF00D0A38800E1A388001000200073
:10B1940000A48800914721000020EF008048780037
:10B1A4000020EF0010A488000020EF00A0A3880076
:10B1B400114721000020EF008048780061472100FA
:10B1C4000020EF0080487800814721000020EF0034
:10B1D40080487800714721000020EF008048780003
:10B1E400B12821000020EF0080487800A129210027
:10B1F4000020EF0080487800414821000020EF0043
:10B2040080487800D14821000020EF008048780071
:10B214001000200070A48800014921000020EF00E4
:10B2240080487800114921000020EF008048780010
:10B23400214921000020EF00804878003149210095
:10B244000020EF0080487800414921000020EF00F1
:10B2540080487800514921000020EF0080487800A0
:10B26400814A21000020EF0080487800914A2100A3
:10B274000020EF0080487800A14A21000020EF0060
:10B2840080487800B14A21000020EF00804878000F
:10B29400C14A21000020EF0080487800D14A2100F3
:10B2A4000020EF0080487800E14A21000020EF00F0
:10B2B400804878000020EF0030A588000020EF00CF
:10B2C40040A488000020EF0030A4880051482100E9
:10B2D4000020EF0080487800C14821000020EF00E2
:10B2E400804878000020EF0050A48800E1912000FD
:10B2F4000020EF00804878000020EF00E04888003C
:10B30400E08C200010E0A100009220001000A100B9
:10B31400E08C200010F0A100E08C200010A0A1001F
:10B32400E08C20001090A100E08C200010B0A1005F
:10B33400E08C200010D0A100E08C200010C0A100FF
:10B34400009220001010A100009220001060A100C3
:10B35400009220001050A100009220001070A10063
:10B36400009220001090A100009220001080A10003
:10B37400009220001030A100009220001020A100B3
:10B38400009220001040A1000020EF001049880026
:10B39400F191200070C1B30080487800E08C200057
:10B3A4001080A100E08C20001070A0000020EF00AD
:10B3B400804788000020EF00904788000020EF00BD
:10B3C400A0478800318D20000020EF0080487800DD
:10B3D4000020EF00404788000020EF00304788003D
:10B3E4000020EF000220EF005047880061478800EA
:10B3F4000020EF000220EF0000AD880011AD8800AE
:10B404000020EF0030AD88000020EF00D0AC8800B1
:10B41400605921001010A100402A210010C0A10091
:10B424003078200070478800E08C20001060A10074
:10B434000020EF00B04788000020EF000220EF005A
:10B4440060488800714888000020EF005048880058
:10B454000020EF000220EF00804888009148880017
:10B464000020EF000220EF00C0488800D148880087
:10B474000020EF00C0AC88000020EF000220EF00A5
:10B48400A0488800B14888000020EF000220EF00A7
:10B49400E0478800F14788000020EF000220EF0019
:10B4A400C0478800D14788000020EF00004888008A
:10B4B4000020EF000220EF00304888004148880057
:10B4C4000020EF000220EF00104888002148880087
:10B4D400F15921000020EF0080487800415A2100F2
:10B4E4000020EF00804878000092200010A0A10006
:10B4F400C09220001070A100C09220001060A10032
:10B504000020EF00404A88000020EF000220EF00F6
:10B51400504A8800614A8800519420000020EF00BE
:10B5240080487800419420000020EF008048780093
:10B53400519320000020EF0080487800C092200042
:10B544001040A100C09220001050A1000020EF0084
:10B55400304A88000020EF00704A88000020EF0085
:10B56400B04A88000020EF00A04A88000020EF00C5
:10B57400C04A88000020EF00D04A8800C092200012
:10B5840010B0A100C09220001090A100C092200031
:10B594001080A1000020EF00804A88000020EF0006
:10B5A400904A8800C092200010A0A100C092200000
:10B5B4001030A1000020EF00404988000020EF0077
:10B5C400304988000092200010F0A100C0922000B1
:10B5D4001000A100402A210010D0A1000020EF009B
:10B5E4000220EF00D08F8800E18F88000020EF0058
:10B5F4000220EF00F08F8800019088000020EF0007
:10B60400808D88000020EF005049880000922000BF
:10B6140010C0A1000092200010B0A1000020EF0093
:10B62400204988000092200010E0A1000092200030
:10B6340010D0A100C09220001010A100402A2100C7
:10B644001090A100402A21001080A100402A21006E
:10B654001020A100402A21001070A100402A2100DE
:10B664001010A100402A21001030A100402A21001E
:10B674001050A100402A21001040A100415F210088
:10B684000020EF0080487800515F21000020EF0087
:10B6940080487800615F21000020EF008048780036
:10B6A400715F21000020EF0080487800915F210045
:10B6B4000020EF0080487800815F21000020EF0027
:10B6C40080487800815B21000020EF0080487800EA
:10B6D400515A21000020EF00804878000020EF003C
:10B6E400C0B18800C12421000020EF008048780008
:10B6F400D12421000020EF0080487800E1242100BB
:10B704000020EF0080487800F12421000020EF00A1
:10B7140080487800012521000020EF00804878004F
:10B72400112521000020EF00804878002125210008
:10B734000020EF0080487800312521000020EF0030
:10B7440080487800412521000020EF0080487800DF
:10B75400512521000020EF00804878006125210058
:10B764000020EF0080487800712521000020EF00C0
:10B7740080487800812521000020EF00804878006F
:10B78400912521000020EF0080487800A1252100A8
:10B794000020EF00804878000020EF000220EF0036
:10B7A400D0498800E14988000020EF000220EF0022
:10B7B400B0498800C14988000020EF00F0498800A2
:10B7C4000020EF00104A88000020EF00004A8800A3
:10B7D4000020EF00804988000020EF0070498800B5
:10B7E4000020EF0090498800C09220001020A100A2
:10B7F400419320000020EF0080487800402A210077
:10B8040010E0A1000020EF00F0AB880021822000AE
:10B814000020EF0080487800118220000020EF0013
:10B82400804878000020EF000220EF0020418800CB
:10B83400314188000020EF000220EF0040418800E1
:10B8440051418800408020001080A10040802000E9
:10B854001070A100408020001060A100311E210062
:10B864000020EF0080487800E18120000020EF00F4
:10B8740080487800018220000020EF008048780092
:10B88400F18120000020EF00804878003182200000
:10B894000020EF00804878000020EF00C0418800BD
:10B8A4000020EF00B04188000020EF00D041880064
:10B8B4000020EF00F04188000020EF00E041880004
:10B8C4000020EF00704188000020EF0060418800F4
:10B8D4000020EF00804188000020EF00A041880094
:10B8E400218320000020EF0080487800D1812000CF
:10B8F4000020EF0080487800408020001010A10054
:10B904000020EF00504088000020EF0060408800D5
:10B914000020EF00804088000020EF007040880085
:10B924000020EF00104088000020EF000040880055
:10B93400408020001000A100402A210010F0A10046
:10B944000020EF00404088000020EF0030408800D5
:10B954000020EF009040880061812000D0C0B30037
:10B964008048780051812000D0C0B300804878001E
:10B974000020EF000220EF00809188009191880060
:10B984000020EF000220EF00C0408800D140880072
:10B99400C18120000020EF0080487800114621007A
:10B9A4000020EF0080487800414621000020EF008D
:10B9B40080487800C14521000020EF0080487800CD
:10B9C400514621000020EF0080487800D146210034
:10B9D4000020EF0080487800314621000020EF006D
:10B9E40080487800D14521000020EF00804878008D
:10B9F400C14621000020EF00804878000147210063
:10BA04000020EF00804878000020EF00D0A28800DA
:10BA14000020EF00F0A288000020EF0050A388006F
:10BA24000020EF0070A38800718120000020EF0047
:10BA340080487800014621000020EF00804878000B
:10BA4400402A210010B0A100E14021000020EF00B5
:10BA540080487800414121000020EF0080487800B0
:10BA6400408020001030A100408020001020A10060
:10BA7400408020001040A000402A210010A0A10016
:10BA8400408020001050A10041812000A0C0B300DC
:10BA940080487800408020001090A100E08C2000B5
:10BAA4001010A000E08C20001000A000E08C20000A
:10BAB4001020A1000020EF0080468800318C200077
:10BAC400A0C0B300804878000020EF0050468800F2
:10BAD4000020EF00404688000020EF006046880008
:10BAE4004080200010F0A1004080200010E0A00061
:10BAF400B129210000C2B3008058780000C2B3000D
:10BB04008058780000C2B3008058780000C2B300A7
:10BB14008058780000C2B3008058780000C2B30097
:10BB24008058780000C2B300805878000020EF00ED
:10BB340080587800E15921000020EF008048780007
:10BB4400E08C20001030A100E08C20001050A100F7
:10BB54000020EF00D04688000020EF00E046880077
:10BB64000020EF000220EF001047880021478800E2
:10BB74000020EF000220EF00F04688000147880013
:10BB8400218D20000020EF0080487800E08C200008
:10BB94001040A1000020EF00A04688000020EF0024
:10BBA400C04688000020EF00B04688000020EF0067
:10BBB400304688004080200010C0A1000020EF0023
:10BBC4000220EF0020428800314288000020EF006C
:10BBD400404288000020EF000220EF0070428800FD
:10BBE400814288000020EF000220EF0050428800CC
:10BBF400614288000020EF0000428800408020005D
:10BC040010A0A1003183200010C0B3008048780048
:10BC1400312A21000020EF0080487800402A2100CA
:10BC24001060A1004080200010B0A1000020EF00AF
:10BC3400104288000020EF00904288000020EF00AE
:10BC440020468800402A21001000A100218C2000F9
:10BC54000020EF00804878004080200010D0A10030
:10BC6400F15821000020EF0080487800C862A80045
:10BC7400D4BD0700CFC2A8005A0020000B0020004A
:10BC84008EDD0700CFC2A9005A0020000B0020005F
:10BC94008ADD07001420EF0086930700CFC2A800B6
:10BCA4005A0020000B00200084DD0700D522A800E4
:10BCB4005A0020000B00200080DD0700D522A900D7
:10BCC4005A0020000B0020007CDD07001420EF0048
:10BCD40078930700D522A8005A0020000B0020000A
:10BCE40076DD0700D542A8005A0020000B00200092
:10BCF40072DD0700D542A9005A0020000B00200085
:10BD04006EDD07001420EF006A930700D542A800F7
:10BD14005A0020000B00200068DD0700CF057800E2
:08BD24004F0578000000060045
:1032C0000A0478008B0478001000F800E700200062
:1032D0008703E900030035008904D1000884D30086
:1032E000FBFF37001200F900F7FF2300878464001A
:1032F0001000E20004003200F93F09000000000065
:103300000804E900FAFF3700098009000000000006
:0433100000000600B3
:1030E0000000FA008A1F78000020EF009088880016
:1030F0000020EF00804B88000020EF00704B88001C
:10310000D222A900DE02A900E422A900DE22A90041
:10311000C0C2A900E402A900D622A900D242A90097
:10312000D262A900D382A900D3A2A900D282A900A9
:10313000D2A2A900D2C2A900D2E2A900E822A90025
:10314000E222A900C4C2A900E802A800D622A80071
:1031500073C10700FAC3B3001CC207005BC20700BB
:103160000ACCB30019C2070058C20700C4C2A800A5
:10317000E802A900FAC3B30014C2070053C2070053
:103180000ACCB30011C2070050C207004F057800F7
:083190000080FA0000000600B7
:020000040000FA
:10372000A70020000E20ED00FEFF3A00000006007A
:0037300099
:1039CC000000FA0014E0AE00D442A90014E0AF00ED
:1039DC00D442A8000000000014C0AE00D462A900BC
:1039EC0014C0AF00D462A8000000000014A0AE0008
:1039FC00D582A90014A0AF00D582A8000000000059
:103A0C001480AE00D5A2A9001480AF00D5A2A800E6
:103A1C00000000001460AE00D482A9001460AF0056
:103A2C00D482A800000000001440AE00D4A2A9006B
:103A3C001440AF00D4A2A800000000001420AE0077
:103A4C00D4C2A9001420AF00D4C2A800000000000A
:103A5C001400AE00D4E2A9001400AF00D4E2A80018
:0C3A6C00000000000080FA0000000600CE
:103ACC000000FA0057F40700E202A80055F40700C2
:0C3ADC00E202A9000080FA0000000600D1
:100C3000470620000E20ED00FEFF3A0000000600EF
:000C4000B4
:020000040001F9
:103198000200FA00C4C2A900E802A8000420EF0057
:1031A8008A1F78000245780039C207004F05780069
:1031B8000020EF00000798002DC20700F10320004F
:1031C800600047001008E1000400320011002000F0
:1031D8006000470010884000F7FF37006710E100E3
:1031E800020032000420EC00EDFF3700E802A900DD
:1031F800C4C2A8000420EF008A1F780002457800A6
:1032080023C207004F0578000020EF000007980050
:1032180017C20700F1032000600047001008E10012
:1032280004003200110020006000470010884000B0
:10323800F7FF37006710E100020032000420EC00BD
:0C324800EDFF37000080FA0000000600D7
:020000040000FA
:103A98000000FA008A1F7800E822A900E222A900A3
:103AA8008A80FB00800B20000080700000457800B1
:103AB800C4FF0700030007004F0578000080FA00E4
:043AC80000000600F4
:103A78000000FA00E202A900E822A800E222A90058
:103A8800D0FF07000F0007000080FA0000000600C2
:003A98002E
:020000040001F9
:1033D4000000FA00601A2000404B8800C05520000D
:1033E400504B88002022EF002222EF0022A2A800E6
:1033F40022C2A900C10120002022200010887000F0
:10340400C1FF2F0020222000108860002302A800A2
:1034140020C2A90021E2A8000080FA0000000600F2
:00342400A8
:103424000000FA004A4B88005B4B88000080FA00D9
:04343400000006008E
:103314008A1F78008B1F78008C1F78008D1F78001F
:103324001D002000CC0120001620EF000A0220001E
:1033340000102000801F78000020EF00801F78001C
:103344000020EF00801F78000020EF00801F78002D
:10335400DBC007008F00B100CF0678004F0678006D
:0C336400CF0578004F057800000006003F
:020000040000FA
:1036C4000000FA00CEB897003EBA97002EB99700D2
:1036D4009EB997002622EF002822EF00C01C20008C
:1036E400404B880080732000504B88000B0075000D
:1036F4000C0070000D0070000100700004007000E8
:1037040082007000802220000388700026C2A90075
:0C37140027E2A8000080FA000000060078
:020000040001F9
:1033700011BD07008A1F78001420EF00BCB60700BB
:10338000470620000E20ED00FEFF3A001420EF005B
:10339000B7B60700470620000E20ED00FEFF3A00FA
:1033A0001420EF00B2B60700470620000E20ED0003
:1033B000FEFF3A001420EF00ADB607004F0578007D
:1033C000470620000E20ED00FEFF3A00FABC070081
:0433D00000000600F3
:020000040000FA
:1027B8006154E10006003A00C882A9000000000048
:1027C8000000000000000000C882A80008003700D0
:1027D8006254E10006003A00C8C2A90000000000E7
:1027E8000000000000000000C8C2A8000000370078
:0427F80000000600D7
:100E70000000FA0048FD07000080FA0000000600AC
:000E800072
:100398000000FA0026C2A9002682BF0062006000A1
:1003A8006100E10002003A0000000000FAFF370097
:1003B8005A1188002682BF00610060006000E100D9
:1003C80002003A0000000000FAFF370051118000D7
:0C03D800010078000080FA000000060020
:020000040001F9
:103058000800FA00C7BD0700C2BD0700A20F200084
:1030680003002000B0C1070000079800110798006E
:103078008A9FBE0072442F00030120000082EB00EB
:103088005DC107004F05BE00200798003107980072
:103098000A01BE000E0090009E0090000082EB0026
:1030A80055C107006402470034015000A48158004C
:1030B80061005100E08059002010880007E2A80054
:1030C800CCBD07000822EF0074C1070092C10700B9
:0830D8000080FA000000060070
:020000040000FA
:10277C000000FA00C04C2000F04A8800C05E200027
:10278C00E04A880000202000004B880060212000D7
:10279C00204B8800E0172000104B8800801620008A
:0C27AC00304B88000080FA00000006009E
:10276C00024C2D00130020000200BE0000000600E9
:00277C005D
:1027FC0008012000472424000E20ED00FEFF3A00C3
:0C280C001020ED00FCFF3A000000060068
:1036A4000000FA00BBF407006100E10002003200F0
:1036B40000000000FBFF37000080FA000000060055
:0036C40006
:100998000000FA000260EF000602AF000260EC00FF
:1009A8000060EF000642AF000060EC008180FB00B1
:1009B8000080FB00808070000060EF000662AF00DE
:1009C8000060EC000080FB00808070000060EF0099
:1009D8000682AF000060EC000080FB0080807000A1
:1009E8000060EF000622AF000060EC000080FB0012
:1009F800808070000060EF0009C2AF000060EC006A
:100A08000080FB00008070006000E10002003A00F6
:100A180011002000010037000220EF0001007800DB
:080A28000080FA000000060046
:103600000000FA00020007004E1B0400000000004A
:103610000800E20002003A00100007000000060067
:10362000839F68000200E20002003D00600010007D
:10363000E08018000600E20002003D006001110079
:10364000E0811900050007004F00E00002003B0088
:1036500060001000E0801800000006006022B80042
:10366000060220000000D0008180D2000482D20037
:103670008582D2000000A8000202520083825A0014
:1036800003003B000202420083824A000000A100C6
:103690000603E900F3FF3A00000006000080FA008C
:0436A0000000060020
:10B3C8008A1F78008B1F7800EA072F00FB072000F0
:10B3D80039E50700E1AA2000804878002A03200008
:10B3E800504207000060FE00E0E120001020A100AC
:10B3F800C092200010E0A100C092200010D0A1004F
:10B40800C092200010F0A100E0E120001010A1007F
:10B41800E0E120001000A100E0E120001030A100D0
:10B42800E0E1200010A0A100E0E120001090A100C0
:10B43800E0E1200010B0A100E0E1200010D0A10060
:10B44800E0E1200010C0A100E0E120001050A100C0
:10B45800E0E120001040A100E0E120001060A10020
:10B46800E0E120001080A100E0E120001070A100C0
:10B47800E0E1200010E0A1000020EF00E08C88004F
:10B488000020EF00D08C880001E2200000C2B30049
:10B498008058780000C2B3008058780000C2B3001A
:10B4A8008058780000C2B3008058780000C2B3000A
:10B4B8008058780000C2B300805878000020EF0060
:10B4C8008058780081F2200000C2B30080587800CC
:10B4D80000C2B3008058780000C2B30080587800DA
:10B4E80000C2B3008058780000C2B30080587800CA
:10B4F80000C2B3008058780000C2B30080587800BA
:10B5080000C2B3008058780000C2B30080587800A9
:10B5180000C2B3008058780000C2B3008058780099
:10B528000020EF008058780041F3200000C2B300EB
:10B538008058780000C2B3008058780000C2B30079
:10B548008058780000C2B3008058780000C2B30069
:10B55800805878000020EF0080587800CF057800E8
:08B568004F0578000000060009
:1048C0000000FA009B0188008A0478001904BA00ED
:1048D00088007800010078000080FA0000000600DF
:0048E000D8
:100AB8000000FA0023FE07000080FA00000006008C
:000AC8002E
:10034C000000FA0020C2A9002082BF0062006000F9
:10035C006100E10002003A0000000000FAFF3700E3
:10036C002A1188002082BF00610060006000E1005B
:10037C0002003A0000000000FAFF37002111800053
:0C038C00010078000080FA00000006006C
:020000040001F9
:10C0EC001600FA008A1F78008B1F78008C1F7800CE
:10C0FC008D1F78001420EF0024DC07007DC0B300F6
:10C10C005CC0B3008A1E28002B0020000002200017
:10C11C00801F780013BD07002F00B1004087AE00D0
:10C12C0090003700E000470030C5B300805878001D
:10C13C0090C7B3008058780030C7B300805878009F
:10C14C0040C7B3008058780050C6B30080587800C0
:10C15C00D0C6B3008058780000C2B3008058780075
:10C16C0060C4B3008058780010C6B30080587800C3
:10C17C0050C7B30080587800C0C6B3008058780010
:10C18C0040C7B30080587800E0C2B30080587800F4
:10C19C00E0C2B30080587800E0C2B3008058780049
:10C1AC00E0C2B300805878000020EF00805878007F
:10C1BC00600047001DC0B3001820EF001620EF00F0
:10C1CC000005780050BB0700E000470030C5B30005
:10C1DC008058780090C7B3008058780030C7B300FF
:10C1EC008058780040C7B3008058780050C6B30020
:10C1FC0080587800D0C6B3008058780000C2B300D5
:10C20C008058780020C5B3008058780050C6B30021
:10C21C008058780030C7B3008058780040C7B3000E
:10C22C008058780010C6B3008058780020C7B3003F
:10C23C008058780040C7B3008058780090C6B3008F
:10C24C0080587800E0C6B3008058780070C6B30000
:10C25C008058780000C2B3008058780000C2B30048
:10C26C008058780000C2B300805878000020EF009E
:10C27C0080587800600047001DC0B3001CC0B3009C
:10C28C001620EF00000578001FBB0700E0004700F8
:10C29C0060C4B3008058780010C6B3008058780092
:10C2AC0050C7B30080587800C0C6B30080587800DF
:10C2BC0040C7B3008058780000C2B30080587800A3
:10C2CC0030C4B30080587800F0C6B30080587800B2
:10C2DC0040C6B3008058780050C6B3008058780030
:10C2EC00A0C3B3008058780000C3B3008058780016
:10C2FC0080C7B3008058780030C4B30080587800F1
:10C30C0000C3B3008058780000C3B3008058780095
:10C31C0010C3B3008058780050C3B3008058780025
:10C32C000020EF0080587800600047001DC0B3006B
:10C33C002CC0B3001620EF0000057800F2BA0700FD
:10C34C001AC0B30018BB07000060FE006554E10082
:10C35C00030032006140450000457800F9FF3700CA
:10C36C004087A900CF0678004F067800CF057800EB
:0CC37C004F0578000080FA000000060069
:020000040000FA
:10B570000000FA008EF89700BA888800CB8888000F
:10B580000180FB00A088880070E220000C48780051
:10B59000F0AA20000D487800100020009088880054
:08B5A0000080FA000000060023
:10AF14000000FA000420EF00908880006000E10047
:10AF24000C003A0071E2200050C0B3008048780061
:10AF3400F1AA200070C0B300804878000000280007
:10AF4400B088880020002000C0888800000220000B
:10AF5400A088880002004500104078006004E100E9
:10AF64000F00320002004500821F78008A9FBE0055
:10AF740010457800DBE207004F05BE004F01780062
:10AF84008B80FB0070E220001080FB0000804000FA
:10AF94000020EC00804578000420EC00EDFF370031
:08AFA4000080FA000000060025
:103AE8000A00FA008A1F78006764E10001003600C6
:103AF8007D0037008A80FB00401121009080500033
:103B080070E220001080FB000008B8000001780077
:103B18000B45780003F407000C457800DCFF07002C
:103B28000C20EF0070E220001080FB000020ED0068
:103B3800400798000030E1004D003E00F0C7B30098
:103B4800005CE10001003600670037008A1F78003A
:103B58000B457800E5F307000C457800CCFF07001B
:103B68000B457800EFF307004F0578003DF3070099
:103B7800004798003BF30700004798008A1F780029
:103B88000B457800D9F307000C457800C0FF070003
:103B98000B457800E3F307004F057800B0888000F4
:103BA800C18880002007980031079800640047000A
:103BB800821F78008C1F78008A9FBE0082057800DB
:103BC8004FDEDE0000057800EDF207004F05BE006D
:103BD8004F0678004F017800E10141002E00900067
:103BE800BE009000A101880010407800104798009E
:103BF800E200470080C8EA00606CE10003003A0078
:103C08002E409000004798000C003700616CE100DE
:103C180003003A001E409000004798000700370054
:103C2800626CE10005003A000E419000E100470097
:103C38006000470011486900000037008A1F7800BB
:103C48000E4590008AFF07004F0578000B80FB00A7
:103C58000020EC00804578004E0090000030E10024
:103C6800030032000C20EC0003017800ADFF3700A0
:103C78008A1F78000B4578009CF307000C457800F4
:103C880083FF07000B457800A6F307004F0578006F
:103C9800F0CFB300104798000020EF0020479800AD
:103CA800606CE10007003A001E4090000047980051
:103CB8008A1F78001E4590006DFF07004F057800A9
:103CC80009003700616CE10007003A002E409000BF
:103CD800004798008A1F78002E45900064FF07006F
:103CE8004F057800000037004F0578000080FA0083
:043CF80000000600C2
:100B2C000000FA008A1F78008A80FB00F007200082
:100B3C000080600000457800E822A900E222A900AC
:100B4C008080FB00F00B20000080600000457800E6
:100B5C008080FB00000420000080700000457800BD
:100B6C0000457800960B0700D50B07004F05780061
:080B7C000080FA0000000600F1
:100AF4000000FA008A80FB00F007200000806000FC
:100B04000045780000C0AE0003003700C4C2A8004E
:100B1400E802A90002003700C4C2A900E802A80044
:080B24000080FA000000060049
:10086C000200FA00D242A800D262A800D382A800EB
:10087C00D3A2A800D282A800D2A2A800D2C2A800FB
:10088C00D2E2A800A30B0700A20B0700E822A800E5
:10089C00E202A900E222A800E202A800E10007009F
:1008AC00600047001074A000D442AE001074A10088
:1008BC00600047001064A000D462AE001064A10078
:1008CC00600047001054A000D582AE001054A10067
:1008DC00600047001044A000D5A2AE001044A10057
:1008EC00600047001034A000D482AE001034A10088
:1008FC00600047001024A000D4A2AE001024A10078
:10090C00600047001014A000D4C2AE001014A10067
:10091C00600047001004A000D4E2AE001004A10057
:10092C00E202A900E222A9007A0B0700790B07006A
:10093C00D242A900D262A900D382A900D3A2A900F5
:10094C00D282A900D2A2A900D2C2A900D2E2A900E7
:0C095C000E4090000080FA000000060031
:100788000000FA0000002800010020000058E100E5
:1007980001E0E100070031001A00BE000B01400033
:1007A8008C81480005E0AE0002003700028DBE00D3
:1007B8002A0037000A0078008000EB006201400040
:1007C800E0814800020278000A0078008000EB000F
:1007D80061004000E0804800800278001240780004
:1007E8000080FB00610060006000E10004003A0046
:1007F8009580FB00F007200000806000804A7800A8
:10080800144078000080FB004100DE00004A7800B8
:100818001A00BE000B1D40000C95480014407800DB
:100828000080FB004100DD00004A78009580FB0055
:1008380000082000008060006000E1000300320032
:100848001480FB0061007000004A78009580FB006E
:100858000008200000807000804A78000080FA00BC
:040868000000060086
:10AFB4000200FA008A1F78008B1F78000020EF003F
:10AFC4000047980016C0B300D542A8005A002000DC
:10AFD4000B002000B9200700D542A9005A00200028
:10AFE4000B002000B52007006134E10003003A00A3
:10AFF40000C8B30000479800230037006234E10022
:10B0040003003A0000CCB300004798001E0037004C
:10B014006334E10003003A0000CEB3000047980017
:10B02400190037006434E10003003A0000CFB30094
:10B0340000479800140037006534E10003003A002B
:10B0440080CFB300004798000F0037006634E1005A
:10B0540003003A00C0CFB300004798000A0037004D
:10B064006734E10003003A00E0CFB30000479800E2
:10B07400050037006834E10003003A00F0CFB30064
:10B084000047980000003700600047001085FB006F
:10B0940088D607009A012000234307000060FE00C1
:10B0A400D542A8005A0020000B002000832007008E
:10B0B4006834E1000300320061404300004378003B
:10B0C400C1FF37000020EF000047980016C0B3000E
:10B0D400D522A8005A0020000B002000772007008A
:10B0E400D522A9005A0020000B002000732007007D
:10B0F4006134E10003003A0000C8B300004798003F
:10B10400230037006234E10003003A0000CCB300AE
:10B11400004798001E0037006334E10003003A0042
:10B1240000CEB30000479800190037006434E100F2
:10B1340003003A0000CFB300004798001400370022
:10B144006534E10003003A0080CFB3000047980063
:10B154000F0037006634E10003003A00C0CFB300AB
:10B16400004798000A0037006734E10003003A0002
:10B17400E0CFB30000479800050037006834E100D1
:10B1840003003A00F0CFB3000047980000003700F6
:10B19400600047001085FB0046D607009A01200096
:10B1A400E14207000060FE00D522A8005A002000FA
:10B1B4000B002000412007006834E1000300320046
:10B1C4006140430000437800C1FF37000020EF00D6
:10B1D4000047980016C0B300CFC2A8005A00200050
:10B1E4000B00200035200700CFC2A9005A00200020
:10B1F4000B002000312007006134E10003003A0015
:10B2040010C0B30000479800230037006234E10007
:10B2140003003A0030C0B300004798001E00370016
:10B224006334E10003003A0070C0B30000479800A3
:10B23400190037006434E10003003A00F0C0B300A1
:10B2440000479800140037006534E10003003A0019
:10B25400F0C1B300004798000F0037006634E100E6
:10B2640003003A00F0C3B300004798000A00370017
:10B274006734E10003003A00F0C7B30000479800C8
:10B28400050037006834E10003003A00F0CFB30052
:10B294000047980000003700600047001085FB005D
:10B2A40004D607009A0120009F4207000060FE00B8
:10B2B400CFC2A8005A0020000B002000FF1F070087
:10B2C4006834E10003003200614043000043780029
:10B2D400C1FF3700AA0F2000934207000060FE0060
:10B2E400AA0F2000904207000060FE00AA0F200071
:10B2F4008D4207000060FE00AA0F20008A4207006A
:10B304000060FE00AA0F200087420700CFC2A800F9
:10B314005A0020000B002000E81F0700CFC2A9003C
:10B324005A0020000B002000E41F07001420EF0047
:10B33400E0D50700CFC2A8005A0020000B0020006F
:10B34400DE1F0700D522A8005A0020000B002000B1
:10B35400DA1F0700D522A9005A0020000B002000A4
:10B36400D61F07001420EF00D2D50700D522A8006D
:10B374005A0020000B002000D01F0700D542A8006F
:10B384005A0020000B002000CC1F0700D542A90062
:10B394005A0020000B002000C81F07001420EF00F3
:10B3A400C4D50700D542A8005A0020000B00200095
:10B3B400C21F0700CF0578004F0578000080FA000F
:04B3C400000006007F
:020000040001F9
:10C0D8000001280012A1B700000028001EA1B70027
:04C0E800000006004E
:10D360008A1F78008B1F78004A002F00FB072000DF
:10D37000539D0700F09F88009A0120006BFA070078
:10D380006A002F00FB0720004D9D0700D09F8800FA
:10D390009A01200065FA07008A002F00FB07200091
:10D3A000479D0700909988009A0120005FFA0700C6
:10D3B000AA002F00FB072000419D0700109788005E
:10D3C0009A01200059FA0700CA002F00FB0720002D
:10D3D0003B9D0700509788009A01200053FA0700F0
:10D3E000D19F8000E03F2100100AB800A200200079
:10D3F000110009000282D800609788000060FE00DA
:10D40000EA002F00FB0720002D9D0700A097880051
:10D410009A01200045FA07000A012F00FB072000AF
:10D42000279D0700809788009A0120003FFA070097
:10D43000CA042F00FB072000219D0700112E2100A8
:10D44000804878009A01200038FA07000060FE004A
:10D450008A032F00FB072000199D0700C12D210022
:10D46000804878009A01200030FA07004A052F0012
:10D47000FB072000129D0700712D210080487800D5
:10D480009A01200029FA07006A052F00FB072000F7
:10D490000B9D0700F09688009A01200023FA0700F0
:10D4A0000060FE00AA032F00FB072000049D070078
:10D4B000C09688009A0120001CFA0700CA032F00BA
:10D4C000FB072000FE9C0700D09688009A012000F0
:10D4D00016FA0700EA042F00FB072000F89C07005B
:10D4E000B1282100804878009A0120000FFA070037
:10D4F0000A052F00FB072000F19C0700A12921004D
:10D50000804878009A01200008FA07008A042F005A
:10D51000FB072000EA9C0700012E210080487800CC
:10D52000D12D2100804878009A012000FFF90700E2
:10D53000AA042F00FB072000E19C0700E15821000E
:10D54000804878009A012000F8F907000060FE008A
:10D550004A042F00FB072000D99C0700012121006D
:10D56000804878009A012000F0F907002A042F0073
:10D57000FB072000D29C0700712221008048780020
:10D580009A012000E9F907000060FE000A042F005C
:10D59000FB072000CA9C07008122210080487800F8
:10D5A0009A012000E1F90700CA012F00FB072000C3
:10D5B000C39C0700911F2100804878009A01200039
:10D5C000DAF90700CA022F00FB072000BC9C070005
:10D5D000109988009A012000D4F90700EA022F0070
:10D5E000FB072000B69C0700709788009A01200076
:10D5F000CEF907000A032F00FB072000B09C0700AC
:10D60000909788009A012000C8F907002A032F008C
:10D61000FB072000AA9C0700B09788009A01200011
:10D62000C2F907000060FE002A012F00FB0720005E
:10D63000A39C070060AC88009A012000BBF907009A
:10D640008A022F00FB0720009D9C070080AC880009
:10D650009A012000B5F90700AA022F00FB0720005D
:10D66000979C0700A0AC88009A012000AFF9070042
:10D670004A022F00FB072000919C070090AC880015
:10D680009A012000A9F907004A012F00FB0720009A
:10D690008B9C070010AC88009A012000A3F90700BA
:10D6A0000060FE00EA012F00FB072000849C0700B9
:10D6B00000AC88009A0120009CF907000A022F00A4
:10D6C000FB0720007E9C070020AC88009A01200008
:10D6D00096F907002A022F00FB072000789C07001C
:10D6E00050AC88009A01200090F9070050AC8000EF
:10D6F0008000EB0030AC880041AC88004A022F006B
:10D70000FB0720006E9C070090AC88009A01200067
:10D7100086F907006A022F00FB072000689C0700BB
:10D72000615921001100A0000000AE001100A1000D
:10D730009A0120007DF907000060FE008A022F0098
:10D74000FB0720005E9C070080AC88009A01200047
:10D7500076F90700AA022F00FB072000589C07005B
:10D76000A0AC88009A01200070F907002A052F005C
:10D77000FB072000529C07008000EB0000AD8800F2
:10D7800011AD8800813E200002002000005A2100D7
:10D7900010981000101019008A052F00FB072000B8
:10D7A000479C0700F1592100804878009A01200029
:10D7B0005EF90700AA052F00FB072000409C070028
:10D7C000415A2100804878009A01200057F907004B
:10D7D0000060FE00EA052F00FB072000389C0700D0
:10D7E000412A21001190A0000000AE001190A1007C
:10D7F0009A0120004DF907002A062F00FB072000A0
:10D800002F9C0700412A21001120A0000000AE003B
:10D810001120A1009A01200044F90700AA062F0058
:10D82000FB072000269C0700412A21001150A00080
:10D830000000AE001150A1009A0120003BF9070042
:10D840000A062F00FB0720001D9C0700412A21002B
:10D850001180A0000000AE001180A1009A012000FC
:10D8600032F907000060FE006A062F00FB07200067
:10D87000139C0700412A21001110A0000000AE00F7
:10D880001110A1009A01200028F90700CA062F00F4
:10D89000FB0720000A9C0700412A21001140A0003C
:10D8A0000000AE001140A1009A0120001FF90700FE
:10D8B0004A062F00FB072000019C0700412A210097
:10D8C0001170A0000000AE001170A1009A012000AC
:10D8D00016F907008A062F00FB072000F89B0700B7
:10D8E000412A21001130A0000000AE001130A1003B
:10D8F0009A0120000DF907000A072F00FB072000FE
:10D90000EF9B070040AD88009A01200007F907004F
:10D910000060FE000060FE00C0CA200030AD88003C
:10D92000F09F80006600E10003003A00F000200054
:10D93000D0AC88003D003700F09F80006C00E10013
:10D9400007003A00E0012000D0AC8800803E2000B3
:10D95000C0AC8800E03D2000E0AC88003300370018
:10D96000F09F80007800E10007003A00C00320002B
:10D97000D0AC8800301E2000C0AC8800F01C200015
:10D98000E0AC88002900370061032000E03F21005F
:10D990001008E1000420EF0001003E0004A0EE00AA
:10D9A000C1032000E03F21001008E1000020EF004B
:10D9B0000100390000A0EE00000061000700320005
:10D9C00040082000D0AC8800C00C2000C0AC88000B
:10D9D000D00C2000E0AC880014003700C106200005
:10D9E000E03F21001008E1000420EF0001003A00B0
:10D9F00004A0EE00E1062000E03F21001008E10055
:10DA00000020EF0001003A0000A0EE0000007100CD
:10DA100006003200C0102000D0AC88002003200097
:10DA2000C0AC880020032000E0AC88009A012000F0
:10DA3000BEF807000060FE00102E210010407800A4
:10DA40006304E10002003A0057B707000500370001
:10DA5000102E2100104078006204E10001003A001D
:10DA600067C607004A632F00FB072000949B07004E
:10DA7000113D2100804878009A012000ABF8070092
:10DA8000EA632F00FB0720008D9B0700E09F8800C2
:10DA90009A012000A5F807000A642F00FB07200068
:10DAA000879B0700413D2100804878009A012000B3
:10DAB0009EF807004A642F00FB072000809B0700A8
:10DAC000909E88009A01200098F807006A642F0051
:10DAD000FB0720007A9B0700412A210011B0A0001B
:10DAE0000000AE0011B0A1009A0120008FF80700DD
:10DAF0000060FE00423D210000E82E00610320008E
:10DB00001281FB008001EB000997070080918800DB
:10DB1000919188006A632F00FB072000689B070033
:10DB2000D0A288009A01200080F807008A632F00A5
:10DB3000FB072000629B0700F0A288009A012000EA
:10DB40007AF80700AA632F00FB0720005C9B070000
:10DB500050A388009A01200074F80700CA632F00C0
:10DB6000FB072000569B070070A388009A01200045
:10DB70006EF807006A082F00FB072000509B070083
:10DB8000E1592100804878009A01200067F80700D9
:10DB90000060FE002A072F00FB072000489B0700BB
:10DBA000312A2100804878009A0120005FF80700A0
:10DBB0000060FE004A072F00FB072000409B070083
:10DBC000412A21001160A0000000AE001160A100F8
:10DBD0009A01200055F807000060FE006A072F0038
:10DBE000FB072000369B0700412A21001100A000FE
:10DBF0000000AE001100A1009A0120004BF80700C0
:10DC00000060FE008A082F00FB0720002C9B070005
:10DC1000F1582100804878009A01200043F807005D
:10DC20000060FE001420EF005BD50700CF057800F0
:08DC30004F057800000006001A
:020000040000FA
:10B7A8006127210080C4B30080587800D0CFB3004F
:10B7B80080587800A0C7B30080587800C0C6B3008E
:10B7C80080587800D0CFB3008058780000C2B3000A
:10B7D800805878000020EF00805878004128210028
:10B7E800E0C4B30080587800F0C6B30080587800F1
:10B7F80020C7B30080587800D0C6B30080587800BE
:10B8080010C6B30080587800C0C6B30080587800CE
:10B818000020EF0080587800D127210030C5B30000
:10B8280080587800E0C2B30080587800B0C4B300F4
:10B8380080587800F0C6B30080587800D0C6B300AE
:10B848008058780000C7B300805878000020EF00C7
:10B858008058780091222100D0C4B3008058780025
:10B8680010C6B30080587800E0C6B300805878004E
:10B8780050C7B3008058780050C6B300805878008D
:10B88800C0C6B300805878000020EF0080587800C8
:10B89800B125210000C2B3008058780010C4B3005D
:10B8A80080587800B0C6B3008058780040C7B3000D
:10B8B8008058780090C6B3008058780060C6B300FE
:10B8C8008058780000C2B300805878000020EF004C
:10B8D800805878005141210040C4B3008058780056
:10B8E800E0C2B3008058780040C4B30080587800A4
:10B8F800D0CFB30080587800E0CFB30080587800EC
:10B90800D0CFB3008058780000C2B30080587800C8
:10B918000020EF00805878003167210040C6B3004E
:10B9280080587800B0C6B300805878000020EF0037
:10B9380080587800A186200000C2B30080587800A3
:10B9480000C2B3008058780000C2B3008058780065
:10B9580000C2B3008058780000C2B3008058780055
:10B9680000C2B3008058780010C4B3008058780033
:10B9780030C4B3008058780000C2B3008058780003
:10B9880090C5B30080587800C0CDB30080587800C7
:10B99800B0C4B3008058780030C5B3008058780030
:10B9A80050C4B30080587800B0C4B3008058780001
:10B9B80000C2B3008058780000C2B30080587800F5
:10B9C80000C2B3008058780000C2B30080587800E5
:10B9D80000C2B3008058780000C2B30080587800D5
:10B9E8000020EF00805878004185200000C2B30095
:10B9F8008058780000C2B3008058780000C2B300B5
:10BA08008058780000C2B3008058780000C2B300A4
:10BA18008058780000C2B3008058780010C4B30082
:10BA28008058780030C4B3008058780000C2B30052
:10BA38008058780040C4B30080587800C0CDB30067
:10BA480080587800E0CDB30080587800C0CDB300AE
:10BA580080587800B0C4B3008058780000C2B300A2
:10BA68008058780000C2B3008058780000C2B30044
:10BA78008058780000C2B3008058780000C2B30034
:10BA88008058780000C2B3008058780000C2B30024
:10BA9800805878000020EF00805878000188200046
:10BAA80010C4B3008058780030C4B30080587800C0
:10BAB80000C2B3008058780070C4B3008058780082
:10BAC80050C4B3008058780020C5B300805878006F
:10BAD800D0CDB30080587800C0C4B3008058780037
:10BAE800D0CDB30080587800D0C4B3008058780017
:10BAF800C0C4B3008058780050C4B30080587800A0
:10BB080020C5B3008058780000C2B3008058780080
:10BB180060C4B3008058780010C4B300805878001F
:10BB280020C5B30080587800B0C4B30080587800AE
:10BB3800C0C4B3008058780090C4B300805878001F
:10BB480000C2B300805878000020EF0080587800C9
:10BB5800C18A200000C2B3008058780000C2B30038
:10BB68008058780000C2B3008058780000C2B30043
:10BB78008058780000C2B3008058780000C2B30033
:10BB88008058780040C4B3008058780030C4B300AF
:10BB98008058780000C2B3008058780090C5B30080
:10BBA80080587800C0CDB30080587800B0C4B30086
:10BBB8008058780030C5B3008058780050C4B3006E
:10BBC80080587800B0C4B3008058780000C2B30031
:10BBD8008058780000C2B3008058780000C2B300D3
:10BBE8008058780000C2B3008058780000C2B300C3
:10BBF8008058780000C2B300805878000020EF0019
:10BC0800805878006189200000C2B300805878000D
:10BC180000C2B3008058780000C2B3008058780092
:10BC280000C2B3008058780000C2B3008058780082
:10BC380000C2B3008058780040C4B3008058780030
:10BC480030C4B3008058780000C2B3008058780030
:10BC580040C4B30080587800C0CDB3008058780045
:10BC6800E0CDB30080587800C0CDB300805878008C
:10BC7800B0C4B3008058780000C2B3008058780080
:10BC880000C2B3008058780000C2B3008058780022
:10BC980000C2B3008058780000C2B3008058780012
:10BCA80000C2B3008058780000C2B3008058780002
:10BCB8000020EF008058780041FD200000C2B3004A
:10BCC8008058780000C2B3008058780000C2B300E2
:10BCD8008058780000C2B3008058780000C2B300D2
:10BCE8008058780000C2B3008058780080C2B30042
:10BCF80080587800B0C2B3008058780090C2B30072
:10BD08008058780000C2B30080587800B0C4B300EF
:10BD18008058780010C4B3008058780070CCB30005
:10BD28008058780010C4B30080587800B0C4B300BD
:10BD38008058780000C2B3008058780000C2B30071
:10BD48008058780000C2B3008058780000C2B30061
:10BD58008058780000C2B3008058780000C2B30051
:10BD6800805878000020EF0080587800E1FB200020
:10BD780000C2B3008058780000C2B3008058780031
:10BD880000C2B3008058780000C2B3008058780021
:10BD980000C2B3008058780000C2B3008058780011
:10BDA80080C2B30080587800D0C2B30080587800B1
:10BDB80090C2B3008058780000C2B3008058780061
:10BDC800B0C4B3008058780010C4B300805878001D
:10BDD80070CCB3008058780010C4B3008058780045
:10BDE800B0C4B3008058780000C2B300805878000F
:10BDF80000C2B3008058780000C2B30080587800B1
:10BE080000C2B3008058780000C2B30080587800A0
:10BE180000C2B300805878000020EF0080587800F6
:10BE2800A1FE200000C2B3008058780010C4B300FF
:10BE380080587800B0C4B30080587800C0CDB300F3
:10BE48008058780000C2B3008058780010C4B3004E
:10BE580080587800B0C4B3008058780090C4B3000C
:10BE680080587800D0C4B3008058780000C2B3006E
:10BE78008058780030C5B3008058780090C4B3006B
:10BE880080587800E0C4B3008058780090C4B300AC
:10BE98008058780020C5B30080587800C0C4B3002B
:10BEA8008058780010C4B30080587800D0C4B3001C
:10BEB8008058780010C4B3008058780000C2B300DE
:10BEC8008058780000C2B300805878000020EF0046
:10BED800805878006101210020C5B300805878009F
:10BEE80050C4B3008058780040C4B300805878002C
:10BEF80020C5B3008058780050C4B300805878003B
:10BF080030C5B3008058780060CDB3008058780001
:10BF180020C5B3008058780000C2B300805878006C
:10BF280010C4B30080587800B0C4B30080587800BB
:10BF380090C4B30080587800D0C4B300805878000B
:10BF480000C2B3008058780030C5B300805878002C
:10BF580090C4B30080587800E0C4B30080587800DB
:10BF680090C4B3008058780020C5B300805878008A
:10BF7800C0C4B30080587800E0C2B300805878008D
:10BF88000020EF00805878000100210000C2B300B3
:10BF98008058780000C2B3008058780000C2B3000F
:10BFA8008058780000C2B3008058780000C2B300FF
:10BFB8008058780000C2B3008058780060C4B3008D
:10BFC8008058780010C4B30080587800E0C4B300EB
:10BFD8008058780000C2B3008058780010C4B300BD
:10BFE8008058780020C5B3008058780090C4B3000A
:10BFF80080587800A0C5B3008058780010C4B300FA
:10C008008058780000C2B3008058780000C2B3009E
:10C018008058780000C2B3008058780000C2B3008E
:10C028008058780000C2B3008058780000C2B3007E
:10C03800805878000020EF008058780061F62000D2
:10C0480000C2B3008058780000C2B300805878005E
:10C0580000C2B3008058780000C2B300805878004E
:10C0680040C5B3008058780050C4B30080587800A9
:10C0780020C5B30080587800D0C4B3008058780039
:10C0880010C4B30080587800C0C4B300805878004A
:10C0980000C2B30080587800B0C4B300805878005C
:10C0A800F0C4B3008058780020C5B30080587800E9
:10C0B80050C5B30080587800D0C4B30080587800C9
:10C0C80010C4B3008058780000C2B30080587800CC
:10C0D80000C2B3008058780000C2B30080587800CE
:10C0E80000C2B300805878000020EF008058780024
:10C0F80001F5200000C2B3008058780000C2B300E8
:10C108008058780000C2B3008058780000C2B3009D
:10C118008058780010C4B30080587800E0CDB30090
:10C128008058780090C4B3008058780020C5B300C8
:10C138008058780090C4B3008058780000C2B300DB
:10C148008058780030C5B3008058780090C4B30098
:10C158008058780030C4B3008058780010C4B30009
:10C1680080587800B0C4B30080587800C0C4B300C9
:10C178008058780090C4B30080587800B0C4B300E9
:10C188008058780000C2B3008058780000C2B3001D
:10C198008058780000C2B300805878000020EF0073
:10C1A80080587800C1F7200000C2B300805878009A
:10C1B80000C2B3008058780010C4B30080587800DB
:10C1C80030C4B3008058780000C2B30080587800AB
:10C1D80030C5B30080587800D0CDB30080587800BF
:10C1E80070C4B30080587800F0C4B3008058780059
:10C1F80020C5B3008058780040C5B3008058780047
:10C2080010C4B3008058780000C2B300805878008A
:10C21800B0C4B3008058780010C4B30080587800C8
:10C2280000C5B3008058780010C4B3008058780067
:10C23800C0C4B3008058780090C4B3008058780018
:10C2480000C2B3008058780000C2B300805878005C
:10C258000020EF008058780081FA200000C2B30067
:10C268008058780000C2B3008058780040C4B300FA
:10C278008058780030C4B3008058780000C2B300FA
:10C288008058780030C5B30080587800D0CDB3000E
:10C298008058780070C4B30080587800F0C4B300A8
:10C2A8008058780020C5B3008058780040C5B30096
:10C2B8008058780010C4B3008058780000C2B300DA
:10C2C80080587800B0C4B3008058780010C4B30018
:10C2D8008058780000C5B3008058780010C4B300B7
:10C2E80080587800C0C4B3008058780090C4B30068
:10C2F8008058780000C2B3008058780000C2B300AC
:10C30800805878000020EF008058780021F920003C
:10C3180010C4B30080587800B0C4B30080587800C7
:10C32800C0CDB3008058780000C2B30080587800B0
:10C3380030C5B30080587800D0CDB300805878005D
:10C3480070C4B30080587800F0C4B30080587800F7
:10C3580020C5B3008058780040C5B30080587800E5
:10C3680010C4B3008058780030C5B30080587800F6
:10C3780090C4B3008058780000C2B3008058780099
:10C38800B0C4B3008058780010C4B3008058780057
:10C3980000C5B3008058780010C4B30080587800F6
:10C3A800C0C4B3008058780090C4B30080587800A7
:10C3B80000C2B300805878000020EF008058780051
:10C3C800C102210000C2B3008058780010C4B30035
:10C3D80080587800B0C4B30080587800C0CDB3004E
:10C3E8008058780000C2B3008058780020C4B30099
:10C3F8008058780010C4B3008058780070C4B30027
:10C4080080587800C0C4B3008058780010C4B300C6
:10C4180080587800E0C4B3008058780040C5B30065
:10C428008058780090C4B3008058780030C5B300B5
:10C438008058780090C4B3008058780000C2B300D8
:10C448008058780040C5B3008058780050C4B300C5
:10C458008058780020C5B3008058780030C5B300F4
:10C468008058780000C2B300805878000020EF00A0
:10C4780080587800810B210000C2B30080587800F2
:10C4880020C5B3008058780050C4B30080587800A5
:10C4980040C4B3008058780020C5B30080587800A5
:10C4A80050C4B3008058780030C5B3008058780075
:10C4B80060CDB3008058780020C5B300805878005C
:10C4C80000C2B3008058780070C4B3008058780068
:10C4D80050C4B30080587800E0C4B3008058780096
:10C4E80050C4B30080587800C0C4B30080587800A6
:10C4F80000C2B3008058780080C4B3008058780028
:10C5080010C4B3008058780040C5B3008058780044
:10C5180010C4B3008058780000C2B3008058780077
:10C528000020EF0080587800210A210000C3B300E2
:10C538008058780080C7B3008058780070C4B30072
:10C548008058780040C5B3008058780040C5B300D3
:10C558008058780010C3B3008058780010C4B30026
:10C568008058780000C2B3008058780080C4B300B7
:10C578008058780010C4B3008058780020C4B300F5
:10C588008058780050C4B3008058780020C5B300A4
:10C5980080587800C0C4B30080587800E0C2B30067
:10C5A8008058780000C2B3008058780080C4B30077
:10C5B8008058780010C4B3008058780040C5B30094
:10C5C8008058780010C4B3008058780000C2B300C7
:10C5D800805878000020EF0080587800E10C210096
:10C5E80000C3B3008058780080C7B3008058780033
:10C5F80010C4B3008058780030C4B3008058780065
:10C60800D0C4B3008058780060C4B3008058780064
:10C6180020C3B3008058780000C2B3008058780067
:10C6280080C4B3008058780010C4B30080587800E4
:10C6380020C4B3008058780050C4B30080587800F4
:10C6480020C5B30080587800C0C4B3008058780073
:10C65800E0C2B3008058780000C2B3008058780068
:10C6680080C4B3008058780010C4B30080587800A4
:10C6780040C5B3008058780010C4B30080587800D3
:10C6880000C2B300805878000020EF00805878007E
:10C69800A10F210000C3B3008058780080C7B30001
:10C6A8008058780060C4B30080587800C0C4B300D4
:10C6B8008058780040C5B30080587800D0C4B300D3
:10C6C8008058780030C3B3008058780000C2B300A7
:10C6D8008058780080C4B3008058780010C4B30034
:10C6E8008058780020C4B3008058780050C4B30044
:10C6F8008058780020C5B30080587800C0C4B300C3
:10C7080080587800E0C2B3008058780000C2B300B7
:10C718008058780080C4B3008058780010C4B300F3
:10C728008058780040C5B3008058780010C4B30022
:10C738008058780000C2B300805878000020EF00CD
:10C7480080587800410E210000C3B300805878005B
:10C7580080C7B3008058780040C4B3008058780080
:10C7680090C4B3008058780030C5B3008058780072
:10C77800D0C4B3008058780040C3B3008058780014
:10C7880000C2B3008058780080C4B3008058780095
:10C7980010C4B3008058780020C4B30080587800D3
:10C7A80050C4B3008058780020C5B3008058780082
:10C7B800C0C4B30080587800E0C2B3008058780045
:10C7C80000C2B3008058780080C4B3008058780055
:10C7D80010C4B3008058780040C5B3008058780072
:10C7E80010C4B3008058780000C2B30080587800A5
:10C7F8000020EF00805878008105210000C2B300B6
:10C808008058780000C2B3008058780010C4B30084
:10C8180080587800B0C4B30080587800C0CDB30009
:10C828008058780000C2B3008058780040C4B30034
:10C838008058780050C4B3008058780020C5B300F1
:10C8480080587800D0CDB30080587800E0C4B30099
:10C858008058780000C2B3008058780040C4B30004
:10C868008058780050C4B30080587800E0CDB300F9
:10C878008058780010C4B3008058780020C5B300F1
:10C8880080587800A0C4B3008058780000C2B30074
:10C898008058780000C2B3008058780000C2B30006
:10C8A800805878000020EF0080587800215321003C
:10C8B80000C2B3008058780040C5B30080587800A3
:10C8C80050C6B30080587800B0C6B30080587800CE
:10C8D800C0C6B3008058780090C6B300805878006E
:10C8E80000C2B300805878000020EF00805878001C
:10C8F800F153210000C5B3008058780010C6B3007A
:10C908008058780020C7B3008058780010C6B3005C
:10C9180080587800C0C6B3008058780050C6B3006D
:10C9280080587800C0C6B300805878000020EF0017
:10C9380080587800A152210090C5B3008058780033
:10C9480050C6B3008058780040C6B30080587800BD
:10C9580050C6B30080587800B0C6B300805878003D
:10C96800C0C6B3008058780090C6B30080587800DD
:10C978000020EF0080587800F15B210090C5B300DB
:10C988008058780050C6B30080587800E0C6B300DD
:10C998008058780090C6B3008058780000C2B30071
:10C9A80080587800E0CDB3008058780090C6B30076
:10C9B8008058780060C6B3008058780020C7B3005C
:10C9C8008058780050C6B3008058780000C2B30081
:10C9D8008058780070C4B3008058780090C6B300BF
:10C9E8008058780020C7B3008058780090C6B300FC
:10C9F80080587800E0C6B3008058780000C2B300C1
:10CA0800805878000020EF0080587800A15F21004E
:10CA1800E0CDB3008058780090C6B3008058780005
:10CA280060C6B3008058780020C7B30080587800EB
:10CA380050C6B30080587800E0C6B300805878002C
:10CA480090C6B30080587800A0C7B300805878001B
:10CA580090C6B3008058780000C2B30080587800B0
:10CA680070C4B3008058780090C6B300805878002E
:10CA780020C7B3008058780090C6B300805878006B
:10CA8800E0C6B3008058780090C6B300805878009C
:10CA9800A0C7B300805878000020EF0080587800C5
:10CAA8002104210000C2B3008058780000C2B300FE
:10CAB8008058780000C2B3008058780000C2B300E4
:10CAC8008058780020C5B3008058780050C4B3005F
:10CAD8008058780040C4B3008058780020C5B3005F
:10CAE8008058780050C4B3008058780030C5B3002F
:10CAF8008058780060CDB3008058780020C5B30016
:10CB08008058780000C2B3008058780080C4B30011
:10CB18008058780010C4B3008058780040C5B3002E
:10CB28008058780010C4B3008058780000C2B30061
:10CB38008058780000C2B3008058780000C2B30063
:10CB48008058780000C2B300805878000020EF00B9
:10CB5800805878009138210000C2B30080587800CE
:10CB680000C2B3008058780000C2B3008058780033
:10CB780000C2B3008058780070CCB30080587800A9
:10CB880010C4B30080587800C0C4B300805878003F
:10CB980090C4B30080587800E0CDB3008058780086
:10CBA800D0C4B3008058780010C4B300805878000F
:10CBB80000C2B30080587800D0C4B3008058780011
:10CBC800F0C4B3008058780040C4B300805878009F
:10CBD80050C5B3008058780000C2B3008058780070
:10CBE80000C2B3008058780000C2B30080587800B3
:10CBF80000C2B300805878000020EF008058780009
:10CC08003137210000C2B3008058780000C2B30059
:10CC18008058780010C4B3008058780030C4B3003E
:10CC28008058780000C2B3008058780070C4B30000
:10CC380080587800D0CDB3008058780020C5B30064
:10CC480080587800D0CDB30080587800E0CDB3008C
:10CC58008058780000C2B3008058780010C4B30030
:10CC68008058780090C5B3008058780010C4B3008D
:10CC78008058780020C5B30080587800C0C4B3003D
:10CC88008058780010C4B3008058780020C5B300DD
:10CC98008058780090C4B3008058780000C2B30070
:10CCA800805878000020EF0080587800612A210021
:10CCB80000C2B3008058780000C2B30080587800E2
:10CCC80040C4B3008058780030C4B300805878005E
:10CCD80000C2B3008058780070CCB3008058780048
:10CCE80090C4B30080587800B0C4B300805878006E
:10CCF80090C4B30080587800E0CDB3008058780025
:10CD080000C2B3008058780010C4B300805878007F
:10CD180090C5B3008058780010C4B30080587800DC
:10CD280020C5B30080587800C0C4B300805878008C
:10CD380010C4B3008058780020C5B300805878002C
:10CD480090C4B3008058780000C2B30080587800BF
:10CD58000020EF0080587800313B210000C2B3006A
:10CD68008058780000C2B3008058780000C2B30031
:10CD78008058780000C2B3008058780010C4B3000F
:10CD880080587800B0C4B30080587800C0CDB30094
:10CD98008058780000C2B3008058780010C4B300EF
:10CDA8008058780090C5B3008058780010C4B3004C
:10CDB8008058780020C5B30080587800C0C4B300FC
:10CDC8008058780010C4B3008058780020C5B3009C
:10CDD8008058780090C4B3008058780000C2B3002F
:10CDE8008058780000C2B3008058780000C2B300B1
:10CDF8008058780000C2B300805878000020EF0007
:10CE0800805878007154210000C2B300805878001F
:10CE180000C2B3008058780000C2B3008058780080
:10CE280010C4B30080587800B0C4B30080587800AC
:10CE3800C0CDB3008058780000C2B3008058780095
:10CE480010C4B3008058780090C5B30080587800AB
:10CE580010C4B3008058780020C5B300805878000B
:10CE6800C0C4B3008058780010C4B300805878005C
:10CE780020C5B3008058780090C4B300805878006B
:10CE880000C2B3008058780010C3B30080587800FF
:10CE9800D0C2B3008058780020C3B300805878000F
:10CEA800E0C3B300805878000020EF008058780075
:10CEB800E165210000C2B3008058780000C2B300C9
:10CEC8008058780000C2B3008058780010C4B300BE
:10CED80080587800B0C4B30080587800C0CDB30043
:10CEE8008058780000C2B3008058780010C4B3009E
:10CEF8008058780090C5B3008058780010C4B300FB
:10CF08008058780020C5B30080587800C0C4B300AA
:10CF18008058780010C4B3008058780020C5B3004A
:10CF28008058780090C4B3008058780000C2B300DD
:10CF38008058780020C3B30080587800D0C2B3006E
:10CF48008058780020C3B30080587800C0C3B3006D
:10CF5800805878000020EF0080587800313E21008A
:10CF680000C2B3008058780000C2B300805878002F
:10CF780010C4B30080587800B0C4B300805878005B
:10CF8800C0CDB30080587800D0C2B3008058780074
:10CF980040C5B3008058780050C4B300805878006A
:10CFA80030C5B3008058780040C5B3008058780079
:10CFB80000C2B3008058780060C7B300805878007A
:10CFC80050C6B3008058780000C2B300805878007B
:10CFD80020C4B3008058780010C4B300805878008B
:10CFE800B0C4B3008058780090C4B300805878006B
:10CFF800D0C4B3008058780000C2B30080587800CD
:10D008000020EF0080587800411E210000C2B300C4
:10D018008058780030C5B3008058780010C4B30039
:10D028008058780010C4B3008058780040C5B30019
:10D0380080587800D0C2B3008058780040C5B3004B
:10D048008058780010C4B3008058780020C5B30019
:10D0580080587800D0CDB3008058780080C4B300E1
:10D068008058780000C2B3008058780010C4B3001C
:10D078008058780090C5B3008058780010C4B30079
:10D088008058780020C5B30080587800C0C4B30029
:10D098008058780010C4B3008058780020C5B300C9
:10D0A8008058780090C4B300805878000020EF00C2
:10D0B800805878009134210000C2B300805878006D
:10D0C80000C2B3008058780000C2B30080587800CE
:10D0D80000C2B3008058780000C2B30080587800BE
:10D0E80040C4B30080587800D0CDB3008058780091
:10D0F800C0C4B3008058780000C2B30080587800DC
:10D1080010C4B3008058780090C5B30080587800E8
:10D1180010C4B3008058780020C5B3008058780048
:10D12800C0C4B3008058780010C4B3008058780099
:10D1380020C5B3008058780090C4B30080587800A8
:10D1480000C2B3008058780000C2B300805878004D
:10D1580000C2B300805878000020EF0080587800A3
:10D16800E106210000C2B3008058780000C2B30075
:10D178008058780000C2B3008058780000C2B3001D
:10D1880080587800F0C4B30080587800C0C4B30059
:10D198008058780010C4B3008058780090C5B30058
:10D1A8008058780000C2B3008058780070C4B3007B
:10D1B8008058780050C4B3008058780070CCB30011
:10D1C80080587800D0C4B30080587800D0CDB30020
:10D1D80080587800E0CDB30080587800D0CDB300F7
:10D1E8008058780000C2B3008058780000C2B300AD
:10D1F8008058780000C2B3008058780000C2B3009D
:10D20800805878000020EF008058780071232100B2
:10D21800B0C4B3008058780010C4B30080587800B8
:10D2280070CCB3008058780010C4B30080587800E0
:10D23800B0C4B3008058780000C2B30080587800AA
:10D2480010C4B30080587800B0C4B3008058780088
:10D2580090C4B30080587800D0C4B30080587800D8
:10D2680000C2B3008058780010C4B300805878001A
:10D2780090C5B3008058780010C4B3008058780077
:10D2880020C5B30080587800C0C4B3008058780027
:10D2980010C4B3008058780020C5B30080587800C7
:10D2A80090C4B3008058780000C2B300805878005A
:10D2B8000020EF0080587800E139210000C2B30057
:10D2C8008058780000C2B3008058780000C2B300CC
:10D2D80080587800D0C4B30080587800F0C4B300F8
:10D2E8008058780040C4B3008058780020C4B30048
:10D2F8008058780050C5B3008058780030C5B30016
:10D308008058780000C2B3008058780010C4B30079
:10D318008058780090C5B3008058780010C4B300D6
:10D328008058780020C5B30080587800C0C4B30086
:10D338008058780010C4B3008058780020C5B30026
:10D348008058780090C4B3008058780000C2B300B9
:10D358008058780000C2B300805878000020EF00A1
:10D3680080587800211B210000C2B3008058780043
:10D3780000C2B3008058780030C5B30080587800E8
:10D3880090C4B3008058780030C4B3008058780047
:10D3980010C4B30080587800B0C4B3008058780037
:10D3A800C0C4B3008058780090C4B3008058780097
:10D3B800B0C4B3008058780000C2B3008058780029
:10D3C80010C4B3008058780090C5B3008058780026
:10D3D80010C4B3008058780020C5B3008058780086
:10D3E800C0C4B3008058780010C4B30080587800D7
:10D3F80020C5B3008058780090C4B30080587800E6
:10D4080000C2B300805878000020EF0080587800F0
:10D41800E135210000C2B3008058780000C2B30093
:10D428008058780000C2B3008058780090C5B300D7
:10D438008058780050C4B3008058780040C5B300C5
:10D4480080587800B0C4B30080587800D0CDB300BD
:10D458008058780000C2B3008058780010C4B30028
:10D468008058780090C5B3008058780010C4B30085
:10D478008058780020C5B30080587800C0C4B30035
:10D488008058780010C4B3008058780020C5B300D5
:10D498008058780090C4B3008058780000C2B30068
:10D4A8008058780000C2B3008058780000C2B300EA
:10D4B800805878000020EF0080587800016D210026
:10D4C80090C5B3008058780050C4B30080587800E5
:10D4D80040C5B30080587800B0C4B30080587800C5
:10D4E800D0CDB3008058780000C2B30080587800CF
:10D4F80010C4B3008058780090C5B30080587800F5
:10D5080010C4B3008058780020C5B3008058780054
:10D51800C0C4B3008058780010C4B30080587800A5
:10D5280020C5B3008058780090C4B30080587800B4
:10D5380000C2B30080587800D0C2B3008058780089
:10D5480010C3B30080587800D0C2B3008058780068
:10D5580020C3B30080587800E0C3B3008058780037
:10D568000020EF00805878009170210090C5B3002A
:10D578008058780050C4B3008058780040C5B30084
:10D5880080587800B0C4B30080587800D0CDB3007C
:10D598008058780000C2B3008058780010C4B300E7
:10D5A8008058780090C5B3008058780010C4B30044
:10D5B8008058780020C5B30080587800C0C4B300F4
:10D5C8008058780010C4B3008058780020C5B30094
:10D5D8008058780090C4B3008058780000C2B30027
:10D5E80080587800D0C2B3008058780020C3B300B8
:10D5F80080587800D0C2B3008058780020C3B300A8
:10D6080080587800C0C3B300805878000020EF002D
:10D61800805878004133210000C2B3008058780058
:10D6280000C2B3008058780000C2B3008058780068
:10D6380000C2B30080587800F0C4B3008058780066
:10D64800C0C4B3008058780010C4B3008058780074
:10D6580090C5B3008058780000C2B30080587800A5
:10D6680070C4B3008058780050C4B3008058780064
:10D6780070CCB30080587800D0C4B30080587800CC
:10D68800D0CDB30080587800E0CDB3008058780042
:10D69800D0CDB3008058780000C2B300805878001D
:10D6A80000C2B3008058780000C2B30080587800E8
:10D6B80000C2B300805878000020EF00805878003E
:10D6C800E150210040C4B3008058780020C5B30061
:10D6D80080587800F0C4B3008058780000C5B300C3
:10D6E80080587800E0C2B3008058780000C2B300C8
:10D6F80080587800D0C4B30080587800F0C4B300D4
:10D708008058780040C4B3008058780050C5B300F2
:10D718008058780000C2B3008058780000C2B30077
:10D7280080587800D0C3B300805878000020EF00FC
:10D73800805878000150210070CCB30080587800E0
:10D7480010C6B30080587800C0C6B300805878006F
:10D75800D0CFB30080587800E0CFB300805878006D
:10D76800D0C6B3008058780010C6B300805878003F
:10D7780000C2B30080587800D0C4B3008058780045
:10D78800F0C6B3008058780040C6B30080587800CF
:10D7980050C7B30080587800D0C3B30080587800D1
:10D7A8000020EF0080587800C1512100D0C4B30098
:10D7B8008058780010C6B3008058780030C7B3008E
:10D7C8008058780040C7B3008058780050C6B3002E
:10D7D8008058780020C7B30080587800F0C2B300A2
:10D7E8008058780030C5B30080587800C0C6B300B0
:10D7F8008058780010C6B3008058780060C7B3001E
:10D808008058780050C6B30080587800D0C3B30061
:10D81800805878000020EF008058780041452100AA
:10D8280070C4B3008058780050C6B30080587800A0
:10D8380020C7B3008058780090C6B300805878009D
:10D848000020EF008058780041312100D0C4B30097
:10D858008058780010C6B3008058780080C7B3009D
:10D8680080587800E0C2B3008058780000C2B30046
:10D878008058780070C4B3008058780050C6B30050
:10D888008058780020C7B3008058780090C6B3004D
:10D8980080587800C0C6B3008058780090C6B3009E
:10D8A80080587800D0C6B30080587800D0C3B30041
:10D8B800805878000020EF0080587800413221001D
:10D8C800D0C4B3008058780090C6B3008058780060
:10D8D800E0C6B30080587800E0C2B30080587800F2
:10D8E80000C2B3008058780070C4B3008058780034
:10D8F80050C6B3008058780020C7B300805878001D
:10D9080090C6B30080587800C0C6B300805878002D
:10D9180090C6B30080587800D0C6B300805878000D
:10D92800D0C3B300805878000020EF0080587800FA
:10D93800912C210060C5B30080587800F0C6B30070
:10D9480080587800C0C6B3008058780040C7B3003C
:10D9580080587800E0C2B3008058780000C2B30055
:10D968008058780060C4B3008058780010C6B300AF
:10D978008058780020C7B30080587800B0C6B3003C
:10D988008058780000C2B3008058780000C2B30005
:10D9980080587800D0C3B300805878000020EF008A
:10D9A80080587800B12B210010C4B300805878004B
:10D9B80030C4B3008058780000C2B30080587800A3
:10D9C800B0C4B30080587800F0C6B300805878001F
:10D9D80020C7B3008058780050C7B300805878003B
:10D9E800D0C6B3008058780010C6B30080587800BD
:10D9F80000C2B3008058780000C2B3008058780095
:10DA080000C2B30080587800D0C3B30080587800B3
:10DA18000020EF00805878007126210080C2B300F2
:10DA280080587800B0C2B3008058780090C2B30024
:10DA38008058780000C2B30080587800B0C4B300A2
:10DA48008058780010C6B3008058780070CEB300B4
:10DA58008058780010C6B30080587800B0C6B3006C
:10DA68008058780000C2B3008058780000C2B30024
:10DA78008058780000C2B30080587800D0C3B30043
:10DA8800805878000020EF0080587800C1282100D5
:10DA980080C2B30080587800D0C2B30080587800A4
:10DAA80090C2B3008058780000C2B3008058780054
:10DAB800B0C4B3008058780010C6B300805878000E
:10DAC80070CEB3008058780010C6B3008058780034
:10DAD800B0C6B3008058780000C2B3008058780000
:10DAE80000C2B3008058780000C2B30080587800A4
:10DAF800D0C3B300805878000020EF008058780029
:10DB0800615E2100D0C4B30080587800F0C6B3002D
:10DB18008058780040C6B3008058780020C6B3000B
:10DB28008058780050C7B3008058780030C7B300D9
:10DB38008058780000C2B3008058780090C4B300C1
:10DB48008058780040C4B3008058780000C2B30001
:10DB58008058780000C2B3008058780000C2B30033
:10DB680080587800D0C3B300805878000020EF00B8
:10DB780080587800815D210020C4B3008058780067
:10DB880010C6B3008058780050C7B300805878009A
:10DB980040C6B3008058780000C2B30080587800AF
:10DBA80020C5B3008058780010C6B30080587800AC
:10DBB80040C7B3008058780050C6B300805878003A
:10DBC80000C2B3008058780000C2B30080587800C3
:10DBD80000C2B30080587800D0C3B30080587800E2
:10DBE8000020EF0080587800511D210010C4B300B8
:10DBF80080587800C0C6B3008058780010C6B300BB
:10DC08008058780020C7B30080587800D0C6B30089
:10DC18008058780000C2B3008058780000C2B30072
:10DC28008058780000C2B3008058780000C2B30062
:10DC38008058780000C2B3008058780000C2B30052
:10DC48008058780000C2B30080587800D0C3B30071
:10DC5800805878000020EF0080587800711C21005F
:10DC680060C4B3008058780010C6B30080587800AC
:10DC7800E0C6B3008058780000C2B300805878002E
:10DC8800F0C4B30080587800E0C6B300805878002C
:10DC980000C2B3008058780000C2B30080587800F2
:10DCA80000C2B3008058780000C2B30080587800E2
:10DCB80000C2B3008058780000C2B30080587800D2
